{"project/src/contracts/WarrantyManager.sol":{"WarrantyManager":{"abi":[{"inputs":[],"stateMutability":"nonpayable","type":"constructor"},{"anonymous":false,"inputs":[{"indexed":true,"internalType":"address","name":"oldAdmin","type":"address"},{"indexed":true,"internalType":"address","name":"newAdmin","type":"address"}],"name":"AdminChanged","type":"event"},{"anonymous":false,"inputs":[{"indexed":false,"internalType":"string","name":"imei","type":"string"},{"indexed":true,"internalType":"address","name":"from","type":"address"},{"indexed":true,"internalType":"address","name":"to","type":"address"}],"name":"OwnershipTransferred","type":"event"},{"anonymous":false,"inputs":[{"indexed":false,"internalType":"string","name":"imei","type":"string"},{"indexed":false,"internalType":"string","name":"description","type":"string"},{"indexed":false,"internalType":"uint256","name":"timestamp","type":"uint256"}],"name":"RepairAdded","type":"event"},{"anonymous":false,"inputs":[{"indexed":false,"internalType":"string","name":"imei","type":"string"},{"indexed":true,"internalType":"address","name":"owner","type":"address"},{"indexed":false,"internalType":"uint256","name":"expiresAt","type":"uint256"}],"name":"WarrantyActivated","type":"event"},{"anonymous":false,"inputs":[{"indexed":false,"internalType":"string","name":"imei","type":"string"},{"indexed":false,"internalType":"uint256","name":"newExpiresAt","type":"uint256"}],"name":"WarrantyRenewed","type":"event"},{"inputs":[{"internalType":"string","name":"imei","type":"string"},{"internalType":"string","name":"model","type":"string"},{"internalType":"address","name":"owner_","type":"address"},{"internalType":"uint256","name":"durationInDays","type":"uint256"}],"name":"activateWarranty","outputs":[],"stateMutability":"nonpayable","type":"function"},{"inputs":[{"internalType":"string","name":"imei","type":"string"},{"internalType":"string","name":"description","type":"string"}],"name":"addRepairRecord","outputs":[],"stateMutability":"nonpayable","type":"function"},{"inputs":[],"name":"admin","outputs":[{"internalType":"address","name":"","type":"address"}],"stateMutability":"view","type":"function"},{"inputs":[{"internalType":"string","name":"imei","type":"string"},{"internalType":"address","name":"account","type":"address"}],"name":"canTransferOwnership","outputs":[{"internalType":"bool","name":"","type":"bool"}],"stateMutability":"view","type":"function"},{"inputs":[{"internalType":"address","name":"newAdmin","type":"address"}],"name":"changeAdmin","outputs":[],"stateMutability":"nonpayable","type":"function"},{"inputs":[{"internalType":"string","name":"imei","type":"string"}],"name":"checkWarranty","outputs":[{"internalType":"string","name":"model","type":"string"},{"internalType":"address","name":"owner_","type":"address"},{"internalType":"uint256","name":"activatedAt","type":"uint256"},{"internalType":"uint256","name":"expiresAt","type":"uint256"},{"internalType":"enum WarrantyManager.WarrantyStatus","name":"status","type":"uint8"}],"stateMutability":"view","type":"function"},{"inputs":[{"internalType":"uint256","name":"index","type":"uint256"}],"name":"getImeiByIndex","outputs":[{"internalType":"string","name":"","type":"string"}],"stateMutability":"view","type":"function"},{"inputs":[{"internalType":"string","name":"imei","type":"string"}],"name":"getRepairHistory","outputs":[{"components":[{"internalType":"uint256","name":"timestamp","type":"uint256"},{"internalType":"string","name":"description","type":"string"},{"internalType":"address","name":"recordedBy","type":"address"}],"internalType":"struct WarrantyManager.RepairRecord[]","name":"","type":"tuple[]"}],"stateMutability":"view","type":"function"},{"inputs":[],"name":"getTotalWarranties","outputs":[{"internalType":"uint256","name":"","type":"uint256"}],"stateMutability":"view","type":"function"},{"inputs":[{"internalType":"address","name":"account","type":"address"}],"name":"isAdminAccount","outputs":[{"internalType":"bool","name":"","type":"bool"}],"stateMutability":"view","type":"function"},{"inputs":[{"internalType":"string","name":"imei","type":"string"},{"internalType":"address","name":"account","type":"address"}],"name":"isWarrantyOwner","outputs":[{"internalType":"bool","name":"","type":"bool"}],"stateMutability":"view","type":"function"},{"inputs":[{"internalType":"string","name":"imei","type":"string"}],"name":"markRepairComplete","outputs":[],"stateMutability":"nonpayable","type":"function"},{"inputs":[{"internalType":"string","name":"imei","type":"string"},{"internalType":"address","name":"newOwner","type":"address"}],"name":"transferOwnership","outputs":[],"stateMutability":"nonpayable","type":"function"}],"evm":{"bytecode":{"linkReferences":{},"object":"608060405234801561000f575f80fd5b505f80546001600160a01b031916331790556115b98061002e5f395ff3fe608060405234801561000f575f80fd5b50600436106100ca575f3560e01c806399c3fe7011610088578063c0e793c211610063578063c0e793c2146101b8578063d540064d146101cb578063e9fb2db1146101dc578063f851a44014610200575f80fd5b806399c3fe7014610172578063b07cff5a14610185578063bd6c1c8514610198575f80fd5b8062c19e80146100ce57806307bb03eb146100e357806307bb5a3d1461010b578063329e05871461012b5780633a6ece561461014c5780638f2839701461015f575b5f80fd5b6100e16100dc366004610ece565b61022a565b005b6100f66100f1366004610f28565b6102fb565b60405190151581526020015b60405180910390f35b61011e610119366004610f78565b610354565b6040516101029190610fd2565b6100f6610139366004610fe4565b5f546001600160a01b0391821691161490565b6100f661015a366004610f28565b610470565b6100e161016d366004610fe4565b610499565b6100e1610180366004610ffd565b610589565b6100e1610193366004611080565b61081c565b6101ab6101a6366004610ece565b6109b5565b60405161010291906110e7565b6100e16101c6366004610f28565b610b1e565b600354604051908152602001610102565b6101ef6101ea366004610ece565b610ced565b604051610102959493929190611183565b5f54610212906001600160a01b031681565b6040516001600160a01b039091168152602001610102565b5f546001600160a01b0316331461025c5760405162461bcd60e51b8152600401610253906111e0565b60405180910390fd5b818160015f61026b8484610e56565b815260208101919091526040015f206005015460ff1661029d5760405162461bcd60e51b81526004016102539061122d565b5f60015f6102ab8787610e56565b81526020019081526020015f209050806004015442116102cc5760016102cf565b60035b60058201805461ff0019166101008360038111156102ef576102ef61116f565b02179055505050505050565b5f806103078585610e56565b5f8181526001602052604090206005015490915060ff1661032b575f91505061034d565b5f908152600160205260409020600201546001600160a01b0383811691161490505b9392505050565b60035460609082106103b45760405162461bcd60e51b8152602060048201526024808201527f57617272616e74794d616e616765723a20696e6465782076756f742067696f69604482015263103430b760e11b6064820152608401610253565b60015f600384815481106103ca576103ca611271565b905f5260205f20015481526020019081526020015f205f0180546103ed90611285565b80601f016020809104026020016040519081016040528092919081815260200182805461041990611285565b80156104645780601f1061043b57610100808354040283529160200191610464565b820191905f5260205f20905b81548152906001019060200180831161044757829003601f168201915b50505050509050919050565b5f80546001600160a01b039081169083160361048e5750600161034d565b5f6103078585610e56565b5f546001600160a01b031633146104c25760405162461bcd60e51b8152600401610253906111e0565b6001600160a01b0381166105305760405162461bcd60e51b815260206004820152602f60248201527f57617272616e74794d616e616765723a20646961206368692061646d696e206d60448201526e6f69206b686f6e6720686f70206c6560881b6064820152608401610253565b5f80546040516001600160a01b03808516939216917f7e644d79422f17c01e4894b5f4f588d331ebfa28653d42ae832dc59e38c9798f91a35f80546001600160a01b0319166001600160a01b0392909216919091179055565b5f546001600160a01b031633146105b25760405162461bcd60e51b8152600401610253906111e0565b6001600160a01b03821661061c5760405162461bcd60e51b815260206004820152602b60248201527f57617272616e74794d616e616765723a2064696120636869206f776e6572206b60448201526a686f6e6720686f70206c6560a81b6064820152608401610253565b5f81116106765760405162461bcd60e51b815260206004820152602260248201527f57617272616e74794d616e616765723a2074686f692068616e2070686169203e604482015261020360f41b6064820152608401610253565b5f6106818787610e56565b5f81815260016020526040812091925061069e84620151806112d1565b6106a890426112e8565b600583015490915060ff1661078957816106c3898b8361135d565b50600182016106d387898361135d565b506002820180546001600160a01b0319166001600160a01b038716908117909155426003808501919091556004840183905560058401805461ffff191661010117905580546001810182555f919091527fc2575a0e9e593c00f959f8c92f12db2869c3395a3b0502d05e2516446f71f85b018490556040517fe68347a47d8eaa1f7358f638fe4e90cfa3efc252ff98eb5f175196b53cd460909061077c908c908c908690611441565b60405180910390a2610811565b6001820161079887898361135d565b506002820180546001600160a01b0319166001600160a01b0387161790554260038301556004820181905560058201805461ff0019166101001790556040517f39344c5d2644793c2e36a32a36dcfffa239f0e6f7921ed4ddb7216b38d7b5e9490610808908b908b908590611441565b60405180910390a15b505050505050505050565b5f546001600160a01b031633146108455760405162461bcd60e51b8152600401610253906111e0565b838360015f6108548484610e56565b815260208101919091526040015f206005015460ff166108865760405162461bcd60e51b81526004016102539061122d565b5f6108918787610e56565b905060025f8281526020019081526020015f20604051806060016040528042815260200187878080601f0160208091040260200160405190810160405280939291908181526020018383808284375f920182905250938552505033602093840152508354600181810186559482529082902083516003909202019081559082015191929091908201906109249082611464565b50604091820151600291820180546001600160a01b0319166001600160a01b039092169190911790555f838152600160205291909120600501805461ff0019166101008302179055507f7aca620370dc57078ecfe486cdb8ae6642f367f6b0efb1266ac1ada72872708787878787426040516109a4959493929190611520565b60405180910390a150505050505050565b6060828260015f6109c68484610e56565b815260208101919091526040015f206005015460ff166109f85760405162461bcd60e51b81526004016102539061122d565b60025f610a058787610e56565b81526020019081526020015f20805480602002602001604051908101604052809291908181526020015f905b82821015610b10578382905f5260205f2090600302016040518060600160405290815f8201548152602001600182018054610a6b90611285565b80601f0160208091040260200160405190810160405280929190818152602001828054610a9790611285565b8015610ae25780601f10610ab957610100808354040283529160200191610ae2565b820191905f5260205f20905b815481529060010190602001808311610ac557829003601f168201915b5050509183525050600291909101546001600160a01b03166020918201529082526001929092019101610a31565b505050509250505092915050565b828260015f610b2d8484610e56565b815260208101919091526040015f206005015460ff16610b5f5760405162461bcd60e51b81526004016102539061122d565b5f610b6a8686610e56565b5f8181526001602052604090206002810154919250906001600160a01b0316331480610b9f57505f546001600160a01b031633145b610c13576040805162461bcd60e51b81526020600482015260248101919091527f57617272616e74794d616e616765723a206368692063687520736f206875752060448201527f686f61632061646d696e206d6f692064756f632063687579656e20717579656e6064820152608401610253565b6001600160a01b038516610c825760405162461bcd60e51b815260206004820152603060248201527f57617272616e74794d616e616765723a2064696120636869206e67756f69206e60448201526f68616e206b686f6e6720686f70206c6560801b6064820152608401610253565b6002810180546001600160a01b038781166001600160a01b0319831681179093556040519116919082907f6840904f5b31827f74e1497360da245f56e530c8c3de3163a2d31f11493273c690610cdb908c908c90611559565b60405180910390a35050505050505050565b60605f805f80868660015f610d028484610e56565b815260208101919091526040015f206005015460ff16610d345760405162461bcd60e51b81526004016102539061122d565b5f60015f610d428c8c610e56565b815260208101919091526040015f206005810154909150610100900460ff166001816003811115610d7557610d7561116f565b148015610d855750816004015442115b15610d8e575060035b81600101826002015f9054906101000a90046001600160a01b03168360030154846004015484848054610dc090611285565b80601f0160208091040260200160405190810160405280929190818152602001828054610dec90611285565b8015610e375780601f10610e0e57610100808354040283529160200191610e37565b820191905f5260205f20905b815481529060010190602001808311610e1a57829003601f168201915b5050505050945098509850985098509850505050509295509295909350565b5f8282604051602001610e6a929190611574565b6040516020818303038152906040528051906020012090505b92915050565b5f8083601f840112610e99575f80fd5b50813567ffffffffffffffff811115610eb0575f80fd5b602083019150836020828501011115610ec7575f80fd5b9250929050565b5f8060208385031215610edf575f80fd5b823567ffffffffffffffff811115610ef5575f80fd5b610f0185828601610e89565b90969095509350505050565b80356001600160a01b0381168114610f23575f80fd5b919050565b5f805f60408486031215610f3a575f80fd5b833567ffffffffffffffff811115610f50575f80fd5b610f5c86828701610e89565b9094509250610f6f905060208501610f0d565b90509250925092565b5f60208284031215610f88575f80fd5b5035919050565b5f81518084525f5b81811015610fb357602081850181015186830182015201610f97565b505f602082860101526020601f19601f83011685010191505092915050565b602081525f61034d6020830184610f8f565b5f60208284031215610ff4575f80fd5b61034d82610f0d565b5f805f805f8060808789031215611012575f80fd5b863567ffffffffffffffff80821115611029575f80fd5b6110358a838b01610e89565b9098509650602089013591508082111561104d575f80fd5b5061105a89828a01610e89565b909550935061106d905060408801610f0d565b9150606087013590509295509295509295565b5f805f8060408587031215611093575f80fd5b843567ffffffffffffffff808211156110aa575f80fd5b6110b688838901610e89565b909650945060208701359150808211156110ce575f80fd5b506110db87828801610e89565b95989497509550505050565b5f6020808301818452808551808352604092508286019150828160051b8701018488015f5b8381101561116157603f19898403018552815160608151855288820151818a87015261113a82870182610f8f565b928901516001600160a01b031695890195909552509487019492509086019060010161110c565b509098975050505050505050565b634e487b7160e01b5f52602160045260245ffd5b60a081525f61119560a0830188610f8f565b6001600160a01b038716602084015260408301869052606083018590529050600483106111d057634e487b7160e01b5f52602160045260245ffd5b8260808301529695505050505050565b6020808252602d908201527f57617272616e74794d616e616765723a206368692061646d696e2f68616e672060408201526c06d6f692064756f63207068657609c1b606082015260800190565b60208082526024908201527f57617272616e74794d616e616765723a206b686f6e672074696d207468617920604082015263494d454960e01b606082015260800190565b634e487b7160e01b5f52603260045260245ffd5b600181811c9082168061129957607f821691505b6020821081036112b757634e487b7160e01b5f52602260045260245ffd5b50919050565b634e487b7160e01b5f52601160045260245ffd5b8082028115828204841417610e8357610e836112bd565b80820180821115610e8357610e836112bd565b634e487b7160e01b5f52604160045260245ffd5b601f821115611358575f81815260208120601f850160051c810160208610156113355750805b601f850160051c820191505b8181101561135457828155600101611341565b5050505b505050565b67ffffffffffffffff831115611375576113756112fb565b611389836113838354611285565b8361130f565b5f601f8411600181146113ba575f85156113a35750838201355b5f19600387901b1c1916600186901b178355611412565b5f83815260209020601f19861690835b828110156113ea57868501358255602094850194600190920191016113ca565b5086821015611406575f1960f88860031b161c19848701351681555b505060018560011b0183555b5050505050565b81835281816020850137505f828201602090810191909152601f909101601f19169091010190565b604081525f611454604083018587611419565b9050826020830152949350505050565b815167ffffffffffffffff81111561147e5761147e6112fb565b6114928161148c8454611285565b8461130f565b602080601f8311600181146114c5575f84156114ae5750858301515b5f19600386901b1c1916600185901b178555611354565b5f85815260208120601f198616915b828110156114f3578886015182559484019460019091019084016114d4565b508582101561151057878501515f19600388901b60f8161c191681555b5050505050600190811b01905550565b606081525f611533606083018789611419565b8281036020840152611546818688611419565b9150508260408301529695505050505050565b602081525f61156c602083018486611419565b949350505050565b818382375f910190815291905056fea26469706673582212209a26ebd8f84cf18795861ce6f838d9ca29b116bf5913acc4b3e5d20a17e0f4ad64736f6c63430008140033","opcodes":"PUSH1 0x80 PUSH1 0x40 MSTORE CALLVALUE DUP1 ISZERO PUSH2 0xF JUMPI PUSH0 DUP1 REVERT JUMPDEST POP PUSH0 DUP1 SLOAD PUSH1 0x1 PUSH1 0x1 PUSH1 0xA0 SHL SUB NOT AND CALLER OR SWAP1 SSTORE PUSH2 0x15B9 DUP1 PUSH2 0x2E PUSH0 CODECOPY PUSH0 RETURN INVALID PUSH1 0x80 PUSH1 0x40 MSTORE CALLVALUE DUP1 ISZERO PUSH2 0xF JUMPI PUSH0 DUP1 REVERT JUMPDEST POP PUSH1 0x4 CALLDATASIZE LT PUSH2 0xCA JUMPI PUSH0 CALLDATALOAD PUSH1 0xE0 SHR DUP1 PUSH4 0x99C3FE70 GT PUSH2 0x88 JUMPI DUP1 PUSH4 0xC0E793C2 GT PUSH2 0x63 JUMPI DUP1 PUSH4 0xC0E793C2 EQ PUSH2 0x1B8 JUMPI DUP1 PUSH4 0xD540064D EQ PUSH2 0x1CB JUMPI DUP1 PUSH4 0xE9FB2DB1 EQ PUSH2 0x1DC JUMPI DUP1 PUSH4 0xF851A440 EQ PUSH2 0x200 JUMPI PUSH0 DUP1 REVERT JUMPDEST DUP1 PUSH4 0x99C3FE70 EQ PUSH2 0x172 JUMPI DUP1 PUSH4 0xB07CFF5A EQ PUSH2 0x185 JUMPI DUP1 PUSH4 0xBD6C1C85 EQ PUSH2 0x198 JUMPI PUSH0 DUP1 REVERT JUMPDEST DUP1 PUSH3 0xC19E80 EQ PUSH2 0xCE JUMPI DUP1 PUSH4 0x7BB03EB EQ PUSH2 0xE3 JUMPI DUP1 PUSH4 0x7BB5A3D EQ PUSH2 0x10B JUMPI DUP1 PUSH4 0x329E0587 EQ PUSH2 0x12B JUMPI DUP1 PUSH4 0x3A6ECE56 EQ PUSH2 0x14C JUMPI DUP1 PUSH4 0x8F283970 EQ PUSH2 0x15F JUMPI JUMPDEST PUSH0 DUP1 REVERT JUMPDEST PUSH2 0xE1 PUSH2 0xDC CALLDATASIZE PUSH1 0x4 PUSH2 0xECE JUMP JUMPDEST PUSH2 0x22A JUMP JUMPDEST STOP JUMPDEST PUSH2 0xF6 PUSH2 0xF1 CALLDATASIZE PUSH1 0x4 PUSH2 0xF28 JUMP JUMPDEST PUSH2 0x2FB JUMP JUMPDEST PUSH1 0x40 MLOAD SWAP1 ISZERO ISZERO DUP2 MSTORE PUSH1 0x20 ADD JUMPDEST PUSH1 0x40 MLOAD DUP1 SWAP2 SUB SWAP1 RETURN JUMPDEST PUSH2 0x11E PUSH2 0x119 CALLDATASIZE PUSH1 0x4 PUSH2 0xF78 JUMP JUMPDEST PUSH2 0x354 JUMP JUMPDEST PUSH1 0x40 MLOAD PUSH2 0x102 SWAP2 SWAP1 PUSH2 0xFD2 JUMP JUMPDEST PUSH2 0xF6 PUSH2 0x139 CALLDATASIZE PUSH1 0x4 PUSH2 0xFE4 JUMP JUMPDEST PUSH0 SLOAD PUSH1 0x1 PUSH1 0x1 PUSH1 0xA0 SHL SUB SWAP2 DUP3 AND SWAP2 AND EQ SWAP1 JUMP JUMPDEST PUSH2 0xF6 PUSH2 0x15A CALLDATASIZE PUSH1 0x4 PUSH2 0xF28 JUMP JUMPDEST PUSH2 0x470 JUMP JUMPDEST PUSH2 0xE1 PUSH2 0x16D CALLDATASIZE PUSH1 0x4 PUSH2 0xFE4 JUMP JUMPDEST PUSH2 0x499 JUMP JUMPDEST PUSH2 0xE1 PUSH2 0x180 CALLDATASIZE PUSH1 0x4 PUSH2 0xFFD JUMP JUMPDEST PUSH2 0x589 JUMP JUMPDEST PUSH2 0xE1 PUSH2 0x193 CALLDATASIZE PUSH1 0x4 PUSH2 0x1080 JUMP JUMPDEST PUSH2 0x81C JUMP JUMPDEST PUSH2 0x1AB PUSH2 0x1A6 CALLDATASIZE PUSH1 0x4 PUSH2 0xECE JUMP JUMPDEST PUSH2 0x9B5 JUMP JUMPDEST PUSH1 0x40 MLOAD PUSH2 0x102 SWAP2 SWAP1 PUSH2 0x10E7 JUMP JUMPDEST PUSH2 0xE1 PUSH2 0x1C6 CALLDATASIZE PUSH1 0x4 PUSH2 0xF28 JUMP JUMPDEST PUSH2 0xB1E JUMP JUMPDEST PUSH1 0x3 SLOAD PUSH1 0x40 MLOAD SWAP1 DUP2 MSTORE PUSH1 0x20 ADD PUSH2 0x102 JUMP JUMPDEST PUSH2 0x1EF PUSH2 0x1EA CALLDATASIZE PUSH1 0x4 PUSH2 0xECE JUMP JUMPDEST PUSH2 0xCED JUMP JUMPDEST PUSH1 0x40 MLOAD PUSH2 0x102 SWAP6 SWAP5 SWAP4 SWAP3 SWAP2 SWAP1 PUSH2 0x1183 JUMP JUMPDEST PUSH0 SLOAD PUSH2 0x212 SWAP1 PUSH1 0x1 PUSH1 0x1 PUSH1 0xA0 SHL SUB AND DUP2 JUMP JUMPDEST PUSH1 0x40 MLOAD PUSH1 0x1 PUSH1 0x1 PUSH1 0xA0 SHL SUB SWAP1 SWAP2 AND DUP2 MSTORE PUSH1 0x20 ADD PUSH2 0x102 JUMP JUMPDEST PUSH0 SLOAD PUSH1 0x1 PUSH1 0x1 PUSH1 0xA0 SHL SUB AND CALLER EQ PUSH2 0x25C JUMPI PUSH1 0x40 MLOAD PUSH3 0x461BCD PUSH1 0xE5 SHL DUP2 MSTORE PUSH1 0x4 ADD PUSH2 0x253 SWAP1 PUSH2 0x11E0 JUMP JUMPDEST PUSH1 0x40 MLOAD DUP1 SWAP2 SUB SWAP1 REVERT JUMPDEST DUP2 DUP2 PUSH1 0x1 PUSH0 PUSH2 0x26B DUP5 DUP5 PUSH2 0xE56 JUMP JUMPDEST DUP2 MSTORE PUSH1 0x20 DUP2 ADD SWAP2 SWAP1 SWAP2 MSTORE PUSH1 0x40 ADD PUSH0 KECCAK256 PUSH1 0x5 ADD SLOAD PUSH1 0xFF AND PUSH2 0x29D JUMPI PUSH1 0x40 MLOAD PUSH3 0x461BCD PUSH1 0xE5 SHL DUP2 MSTORE PUSH1 0x4 ADD PUSH2 0x253 SWAP1 PUSH2 0x122D JUMP JUMPDEST PUSH0 PUSH1 0x1 PUSH0 PUSH2 0x2AB DUP8 DUP8 PUSH2 0xE56 JUMP JUMPDEST DUP2 MSTORE PUSH1 0x20 ADD SWAP1 DUP2 MSTORE PUSH1 0x20 ADD PUSH0 KECCAK256 SWAP1 POP DUP1 PUSH1 0x4 ADD SLOAD TIMESTAMP GT PUSH2 0x2CC JUMPI PUSH1 0x1 PUSH2 0x2CF JUMP JUMPDEST PUSH1 0x3 JUMPDEST PUSH1 0x5 DUP3 ADD DUP1 SLOAD PUSH2 0xFF00 NOT AND PUSH2 0x100 DUP4 PUSH1 0x3 DUP2 GT ISZERO PUSH2 0x2EF JUMPI PUSH2 0x2EF PUSH2 0x116F JUMP JUMPDEST MUL OR SWAP1 SSTORE POP POP POP POP POP POP JUMP JUMPDEST PUSH0 DUP1 PUSH2 0x307 DUP6 DUP6 PUSH2 0xE56 JUMP JUMPDEST PUSH0 DUP2 DUP2 MSTORE PUSH1 0x1 PUSH1 0x20 MSTORE PUSH1 0x40 SWAP1 KECCAK256 PUSH1 0x5 ADD SLOAD SWAP1 SWAP2 POP PUSH1 0xFF AND PUSH2 0x32B JUMPI PUSH0 SWAP2 POP POP PUSH2 0x34D JUMP JUMPDEST PUSH0 SWAP1 DUP2 MSTORE PUSH1 0x1 PUSH1 0x20 MSTORE PUSH1 0x40 SWAP1 KECCAK256 PUSH1 0x2 ADD SLOAD PUSH1 0x1 PUSH1 0x1 PUSH1 0xA0 SHL SUB DUP4 DUP2 AND SWAP2 AND EQ SWAP1 POP JUMPDEST SWAP4 SWAP3 POP POP POP JUMP JUMPDEST PUSH1 0x3 SLOAD PUSH1 0x60 SWAP1 DUP3 LT PUSH2 0x3B4 JUMPI PUSH1 0x40 MLOAD PUSH3 0x461BCD PUSH1 0xE5 SHL DUP2 MSTORE PUSH1 0x20 PUSH1 0x4 DUP3 ADD MSTORE PUSH1 0x24 DUP1 DUP3 ADD MSTORE PUSH32 0x57617272616E74794D616E616765723A20696E6465782076756F742067696F69 PUSH1 0x44 DUP3 ADD MSTORE PUSH4 0x103430B7 PUSH1 0xE1 SHL PUSH1 0x64 DUP3 ADD MSTORE PUSH1 0x84 ADD PUSH2 0x253 JUMP JUMPDEST PUSH1 0x1 PUSH0 PUSH1 0x3 DUP5 DUP2 SLOAD DUP2 LT PUSH2 0x3CA JUMPI PUSH2 0x3CA PUSH2 0x1271 JUMP JUMPDEST SWAP1 PUSH0 MSTORE PUSH1 0x20 PUSH0 KECCAK256 ADD SLOAD DUP2 MSTORE PUSH1 0x20 ADD SWAP1 DUP2 MSTORE PUSH1 0x20 ADD PUSH0 KECCAK256 PUSH0 ADD DUP1 SLOAD PUSH2 0x3ED SWAP1 PUSH2 0x1285 JUMP JUMPDEST DUP1 PUSH1 0x1F ADD PUSH1 0x20 DUP1 SWAP2 DIV MUL PUSH1 0x20 ADD PUSH1 0x40 MLOAD SWAP1 DUP2 ADD PUSH1 0x40 MSTORE DUP1 SWAP3 SWAP2 SWAP1 DUP2 DUP2 MSTORE PUSH1 0x20 ADD DUP3 DUP1 SLOAD PUSH2 0x419 SWAP1 PUSH2 0x1285 JUMP JUMPDEST DUP1 ISZERO PUSH2 0x464 JUMPI DUP1 PUSH1 0x1F LT PUSH2 0x43B JUMPI PUSH2 0x100 DUP1 DUP4 SLOAD DIV MUL DUP4 MSTORE SWAP2 PUSH1 0x20 ADD SWAP2 PUSH2 0x464 JUMP JUMPDEST DUP3 ADD SWAP2 SWAP1 PUSH0 MSTORE PUSH1 0x20 PUSH0 KECCAK256 SWAP1 JUMPDEST DUP2 SLOAD DUP2 MSTORE SWAP1 PUSH1 0x1 ADD SWAP1 PUSH1 0x20 ADD DUP1 DUP4 GT PUSH2 0x447 JUMPI DUP3 SWAP1 SUB PUSH1 0x1F AND DUP3 ADD SWAP2 JUMPDEST POP POP POP POP POP SWAP1 POP SWAP2 SWAP1 POP JUMP JUMPDEST PUSH0 DUP1 SLOAD PUSH1 0x1 PUSH1 0x1 PUSH1 0xA0 SHL SUB SWAP1 DUP2 AND SWAP1 DUP4 AND SUB PUSH2 0x48E JUMPI POP PUSH1 0x1 PUSH2 0x34D JUMP JUMPDEST PUSH0 PUSH2 0x307 DUP6 DUP6 PUSH2 0xE56 JUMP JUMPDEST PUSH0 SLOAD PUSH1 0x1 PUSH1 0x1 PUSH1 0xA0 SHL SUB AND CALLER EQ PUSH2 0x4C2 JUMPI PUSH1 0x40 MLOAD PUSH3 0x461BCD PUSH1 0xE5 SHL DUP2 MSTORE PUSH1 0x4 ADD PUSH2 0x253 SWAP1 PUSH2 0x11E0 JUMP JUMPDEST PUSH1 0x1 PUSH1 0x1 PUSH1 0xA0 SHL SUB DUP2 AND PUSH2 0x530 JUMPI PUSH1 0x40 MLOAD PUSH3 0x461BCD PUSH1 0xE5 SHL DUP2 MSTORE PUSH1 0x20 PUSH1 0x4 DUP3 ADD MSTORE PUSH1 0x2F PUSH1 0x24 DUP3 ADD MSTORE PUSH32 0x57617272616E74794D616E616765723A20646961206368692061646D696E206D PUSH1 0x44 DUP3 ADD MSTORE PUSH15 0x6F69206B686F6E6720686F70206C65 PUSH1 0x88 SHL PUSH1 0x64 DUP3 ADD MSTORE PUSH1 0x84 ADD PUSH2 0x253 JUMP JUMPDEST PUSH0 DUP1 SLOAD PUSH1 0x40 MLOAD PUSH1 0x1 PUSH1 0x1 PUSH1 0xA0 SHL SUB DUP1 DUP6 AND SWAP4 SWAP3 AND SWAP2 PUSH32 0x7E644D79422F17C01E4894B5F4F588D331EBFA28653D42AE832DC59E38C9798F SWAP2 LOG3 PUSH0 DUP1 SLOAD PUSH1 0x1 PUSH1 0x1 PUSH1 0xA0 SHL SUB NOT AND PUSH1 0x1 PUSH1 0x1 PUSH1 0xA0 SHL SUB SWAP3 SWAP1 SWAP3 AND SWAP2 SWAP1 SWAP2 OR SWAP1 SSTORE JUMP JUMPDEST PUSH0 SLOAD PUSH1 0x1 PUSH1 0x1 PUSH1 0xA0 SHL SUB AND CALLER EQ PUSH2 0x5B2 JUMPI PUSH1 0x40 MLOAD PUSH3 0x461BCD PUSH1 0xE5 SHL DUP2 MSTORE PUSH1 0x4 ADD PUSH2 0x253 SWAP1 PUSH2 0x11E0 JUMP JUMPDEST PUSH1 0x1 PUSH1 0x1 PUSH1 0xA0 SHL SUB DUP3 AND PUSH2 0x61C JUMPI PUSH1 0x40 MLOAD PUSH3 0x461BCD PUSH1 0xE5 SHL DUP2 MSTORE PUSH1 0x20 PUSH1 0x4 DUP3 ADD MSTORE PUSH1 0x2B PUSH1 0x24 DUP3 ADD MSTORE PUSH32 0x57617272616E74794D616E616765723A2064696120636869206F776E6572206B PUSH1 0x44 DUP3 ADD MSTORE PUSH11 0x686F6E6720686F70206C65 PUSH1 0xA8 SHL PUSH1 0x64 DUP3 ADD MSTORE PUSH1 0x84 ADD PUSH2 0x253 JUMP JUMPDEST PUSH0 DUP2 GT PUSH2 0x676 JUMPI PUSH1 0x40 MLOAD PUSH3 0x461BCD PUSH1 0xE5 SHL DUP2 MSTORE PUSH1 0x20 PUSH1 0x4 DUP3 ADD MSTORE PUSH1 0x22 PUSH1 0x24 DUP3 ADD MSTORE PUSH32 0x57617272616E74794D616E616765723A2074686F692068616E2070686169203E PUSH1 0x44 DUP3 ADD MSTORE PUSH2 0x203 PUSH1 0xF4 SHL PUSH1 0x64 DUP3 ADD MSTORE PUSH1 0x84 ADD PUSH2 0x253 JUMP JUMPDEST PUSH0 PUSH2 0x681 DUP8 DUP8 PUSH2 0xE56 JUMP JUMPDEST PUSH0 DUP2 DUP2 MSTORE PUSH1 0x1 PUSH1 0x20 MSTORE PUSH1 0x40 DUP2 KECCAK256 SWAP2 SWAP3 POP PUSH2 0x69E DUP5 PUSH3 0x15180 PUSH2 0x12D1 JUMP JUMPDEST PUSH2 0x6A8 SWAP1 TIMESTAMP PUSH2 0x12E8 JUMP JUMPDEST PUSH1 0x5 DUP4 ADD SLOAD SWAP1 SWAP2 POP PUSH1 0xFF AND PUSH2 0x789 JUMPI DUP2 PUSH2 0x6C3 DUP10 DUP12 DUP4 PUSH2 0x135D JUMP JUMPDEST POP PUSH1 0x1 DUP3 ADD PUSH2 0x6D3 DUP8 DUP10 DUP4 PUSH2 0x135D JUMP JUMPDEST POP PUSH1 0x2 DUP3 ADD DUP1 SLOAD PUSH1 0x1 PUSH1 0x1 PUSH1 0xA0 SHL SUB NOT AND PUSH1 0x1 PUSH1 0x1 PUSH1 0xA0 SHL SUB DUP8 AND SWAP1 DUP2 OR SWAP1 SWAP2 SSTORE TIMESTAMP PUSH1 0x3 DUP1 DUP6 ADD SWAP2 SWAP1 SWAP2 SSTORE PUSH1 0x4 DUP5 ADD DUP4 SWAP1 SSTORE PUSH1 0x5 DUP5 ADD DUP1 SLOAD PUSH2 0xFFFF NOT AND PUSH2 0x101 OR SWAP1 SSTORE DUP1 SLOAD PUSH1 0x1 DUP2 ADD DUP3 SSTORE PUSH0 SWAP2 SWAP1 SWAP2 MSTORE PUSH32 0xC2575A0E9E593C00F959F8C92F12DB2869C3395A3B0502D05E2516446F71F85B ADD DUP5 SWAP1 SSTORE PUSH1 0x40 MLOAD PUSH32 0xE68347A47D8EAA1F7358F638FE4E90CFA3EFC252FF98EB5F175196B53CD46090 SWAP1 PUSH2 0x77C SWAP1 DUP13 SWAP1 DUP13 SWAP1 DUP7 SWAP1 PUSH2 0x1441 JUMP JUMPDEST PUSH1 0x40 MLOAD DUP1 SWAP2 SUB SWAP1 LOG2 PUSH2 0x811 JUMP JUMPDEST PUSH1 0x1 DUP3 ADD PUSH2 0x798 DUP8 DUP10 DUP4 PUSH2 0x135D JUMP JUMPDEST POP PUSH1 0x2 DUP3 ADD DUP1 SLOAD PUSH1 0x1 PUSH1 0x1 PUSH1 0xA0 SHL SUB NOT AND PUSH1 0x1 PUSH1 0x1 PUSH1 0xA0 SHL SUB DUP8 AND OR SWAP1 SSTORE TIMESTAMP PUSH1 0x3 DUP4 ADD SSTORE PUSH1 0x4 DUP3 ADD DUP2 SWAP1 SSTORE PUSH1 0x5 DUP3 ADD DUP1 SLOAD PUSH2 0xFF00 NOT AND PUSH2 0x100 OR SWAP1 SSTORE PUSH1 0x40 MLOAD PUSH32 0x39344C5D2644793C2E36A32A36DCFFFA239F0E6F7921ED4DDB7216B38D7B5E94 SWAP1 PUSH2 0x808 SWAP1 DUP12 SWAP1 DUP12 SWAP1 DUP6 SWAP1 PUSH2 0x1441 JUMP JUMPDEST PUSH1 0x40 MLOAD DUP1 SWAP2 SUB SWAP1 LOG1 JUMPDEST POP POP POP POP POP POP POP POP POP JUMP JUMPDEST PUSH0 SLOAD PUSH1 0x1 PUSH1 0x1 PUSH1 0xA0 SHL SUB AND CALLER EQ PUSH2 0x845 JUMPI PUSH1 0x40 MLOAD PUSH3 0x461BCD PUSH1 0xE5 SHL DUP2 MSTORE PUSH1 0x4 ADD PUSH2 0x253 SWAP1 PUSH2 0x11E0 JUMP JUMPDEST DUP4 DUP4 PUSH1 0x1 PUSH0 PUSH2 0x854 DUP5 DUP5 PUSH2 0xE56 JUMP JUMPDEST DUP2 MSTORE PUSH1 0x20 DUP2 ADD SWAP2 SWAP1 SWAP2 MSTORE PUSH1 0x40 ADD PUSH0 KECCAK256 PUSH1 0x5 ADD SLOAD PUSH1 0xFF AND PUSH2 0x886 JUMPI PUSH1 0x40 MLOAD PUSH3 0x461BCD PUSH1 0xE5 SHL DUP2 MSTORE PUSH1 0x4 ADD PUSH2 0x253 SWAP1 PUSH2 0x122D JUMP JUMPDEST PUSH0 PUSH2 0x891 DUP8 DUP8 PUSH2 0xE56 JUMP JUMPDEST SWAP1 POP PUSH1 0x2 PUSH0 DUP3 DUP2 MSTORE PUSH1 0x20 ADD SWAP1 DUP2 MSTORE PUSH1 0x20 ADD PUSH0 KECCAK256 PUSH1 0x40 MLOAD DUP1 PUSH1 0x60 ADD PUSH1 0x40 MSTORE DUP1 TIMESTAMP DUP2 MSTORE PUSH1 0x20 ADD DUP8 DUP8 DUP1 DUP1 PUSH1 0x1F ADD PUSH1 0x20 DUP1 SWAP2 DIV MUL PUSH1 0x20 ADD PUSH1 0x40 MLOAD SWAP1 DUP2 ADD PUSH1 0x40 MSTORE DUP1 SWAP4 SWAP3 SWAP2 SWAP1 DUP2 DUP2 MSTORE PUSH1 0x20 ADD DUP4 DUP4 DUP1 DUP3 DUP5 CALLDATACOPY PUSH0 SWAP3 ADD DUP3 SWAP1 MSTORE POP SWAP4 DUP6 MSTORE POP POP CALLER PUSH1 0x20 SWAP4 DUP5 ADD MSTORE POP DUP4 SLOAD PUSH1 0x1 DUP2 DUP2 ADD DUP7 SSTORE SWAP5 DUP3 MSTORE SWAP1 DUP3 SWAP1 KECCAK256 DUP4 MLOAD PUSH1 0x3 SWAP1 SWAP3 MUL ADD SWAP1 DUP2 SSTORE SWAP1 DUP3 ADD MLOAD SWAP2 SWAP3 SWAP1 SWAP2 SWAP1 DUP3 ADD SWAP1 PUSH2 0x924 SWAP1 DUP3 PUSH2 0x1464 JUMP JUMPDEST POP PUSH1 0x40 SWAP2 DUP3 ADD MLOAD PUSH1 0x2 SWAP2 DUP3 ADD DUP1 SLOAD PUSH1 0x1 PUSH1 0x1 PUSH1 0xA0 SHL SUB NOT AND PUSH1 0x1 PUSH1 0x1 PUSH1 0xA0 SHL SUB SWAP1 SWAP3 AND SWAP2 SWAP1 SWAP2 OR SWAP1 SSTORE PUSH0 DUP4 DUP2 MSTORE PUSH1 0x1 PUSH1 0x20 MSTORE SWAP2 SWAP1 SWAP2 KECCAK256 PUSH1 0x5 ADD DUP1 SLOAD PUSH2 0xFF00 NOT AND PUSH2 0x100 DUP4 MUL OR SWAP1 SSTORE POP PUSH32 0x7ACA620370DC57078ECFE486CDB8AE6642F367F6B0EFB1266AC1ADA728727087 DUP8 DUP8 DUP8 DUP8 TIMESTAMP PUSH1 0x40 MLOAD PUSH2 0x9A4 SWAP6 SWAP5 SWAP4 SWAP3 SWAP2 SWAP1 PUSH2 0x1520 JUMP JUMPDEST PUSH1 0x40 MLOAD DUP1 SWAP2 SUB SWAP1 LOG1 POP POP POP POP POP POP POP JUMP JUMPDEST PUSH1 0x60 DUP3 DUP3 PUSH1 0x1 PUSH0 PUSH2 0x9C6 DUP5 DUP5 PUSH2 0xE56 JUMP JUMPDEST DUP2 MSTORE PUSH1 0x20 DUP2 ADD SWAP2 SWAP1 SWAP2 MSTORE PUSH1 0x40 ADD PUSH0 KECCAK256 PUSH1 0x5 ADD SLOAD PUSH1 0xFF AND PUSH2 0x9F8 JUMPI PUSH1 0x40 MLOAD PUSH3 0x461BCD PUSH1 0xE5 SHL DUP2 MSTORE PUSH1 0x4 ADD PUSH2 0x253 SWAP1 PUSH2 0x122D JUMP JUMPDEST PUSH1 0x2 PUSH0 PUSH2 0xA05 DUP8 DUP8 PUSH2 0xE56 JUMP JUMPDEST DUP2 MSTORE PUSH1 0x20 ADD SWAP1 DUP2 MSTORE PUSH1 0x20 ADD PUSH0 KECCAK256 DUP1 SLOAD DUP1 PUSH1 0x20 MUL PUSH1 0x20 ADD PUSH1 0x40 MLOAD SWAP1 DUP2 ADD PUSH1 0x40 MSTORE DUP1 SWAP3 SWAP2 SWAP1 DUP2 DUP2 MSTORE PUSH1 0x20 ADD PUSH0 SWAP1 JUMPDEST DUP3 DUP3 LT ISZERO PUSH2 0xB10 JUMPI DUP4 DUP3 SWAP1 PUSH0 MSTORE PUSH1 0x20 PUSH0 KECCAK256 SWAP1 PUSH1 0x3 MUL ADD PUSH1 0x40 MLOAD DUP1 PUSH1 0x60 ADD PUSH1 0x40 MSTORE SWAP1 DUP2 PUSH0 DUP3 ADD SLOAD DUP2 MSTORE PUSH1 0x20 ADD PUSH1 0x1 DUP3 ADD DUP1 SLOAD PUSH2 0xA6B SWAP1 PUSH2 0x1285 JUMP JUMPDEST DUP1 PUSH1 0x1F ADD PUSH1 0x20 DUP1 SWAP2 DIV MUL PUSH1 0x20 ADD PUSH1 0x40 MLOAD SWAP1 DUP2 ADD PUSH1 0x40 MSTORE DUP1 SWAP3 SWAP2 SWAP1 DUP2 DUP2 MSTORE PUSH1 0x20 ADD DUP3 DUP1 SLOAD PUSH2 0xA97 SWAP1 PUSH2 0x1285 JUMP JUMPDEST DUP1 ISZERO PUSH2 0xAE2 JUMPI DUP1 PUSH1 0x1F LT PUSH2 0xAB9 JUMPI PUSH2 0x100 DUP1 DUP4 SLOAD DIV MUL DUP4 MSTORE SWAP2 PUSH1 0x20 ADD SWAP2 PUSH2 0xAE2 JUMP JUMPDEST DUP3 ADD SWAP2 SWAP1 PUSH0 MSTORE PUSH1 0x20 PUSH0 KECCAK256 SWAP1 JUMPDEST DUP2 SLOAD DUP2 MSTORE SWAP1 PUSH1 0x1 ADD SWAP1 PUSH1 0x20 ADD DUP1 DUP4 GT PUSH2 0xAC5 JUMPI DUP3 SWAP1 SUB PUSH1 0x1F AND DUP3 ADD SWAP2 JUMPDEST POP POP POP SWAP2 DUP4 MSTORE POP POP PUSH1 0x2 SWAP2 SWAP1 SWAP2 ADD SLOAD PUSH1 0x1 PUSH1 0x1 PUSH1 0xA0 SHL SUB AND PUSH1 0x20 SWAP2 DUP3 ADD MSTORE SWAP1 DUP3 MSTORE PUSH1 0x1 SWAP3 SWAP1 SWAP3 ADD SWAP2 ADD PUSH2 0xA31 JUMP JUMPDEST POP POP POP POP SWAP3 POP POP POP SWAP3 SWAP2 POP POP JUMP JUMPDEST DUP3 DUP3 PUSH1 0x1 PUSH0 PUSH2 0xB2D DUP5 DUP5 PUSH2 0xE56 JUMP JUMPDEST DUP2 MSTORE PUSH1 0x20 DUP2 ADD SWAP2 SWAP1 SWAP2 MSTORE PUSH1 0x40 ADD PUSH0 KECCAK256 PUSH1 0x5 ADD SLOAD PUSH1 0xFF AND PUSH2 0xB5F JUMPI PUSH1 0x40 MLOAD PUSH3 0x461BCD PUSH1 0xE5 SHL DUP2 MSTORE PUSH1 0x4 ADD PUSH2 0x253 SWAP1 PUSH2 0x122D JUMP JUMPDEST PUSH0 PUSH2 0xB6A DUP7 DUP7 PUSH2 0xE56 JUMP JUMPDEST PUSH0 DUP2 DUP2 MSTORE PUSH1 0x1 PUSH1 0x20 MSTORE PUSH1 0x40 SWAP1 KECCAK256 PUSH1 0x2 DUP2 ADD SLOAD SWAP2 SWAP3 POP SWAP1 PUSH1 0x1 PUSH1 0x1 PUSH1 0xA0 SHL SUB AND CALLER EQ DUP1 PUSH2 0xB9F JUMPI POP PUSH0 SLOAD PUSH1 0x1 PUSH1 0x1 PUSH1 0xA0 SHL SUB AND CALLER EQ JUMPDEST PUSH2 0xC13 JUMPI PUSH1 0x40 DUP1 MLOAD PUSH3 0x461BCD PUSH1 0xE5 SHL DUP2 MSTORE PUSH1 0x20 PUSH1 0x4 DUP3 ADD MSTORE PUSH1 0x24 DUP2 ADD SWAP2 SWAP1 SWAP2 MSTORE PUSH32 0x57617272616E74794D616E616765723A206368692063687520736F2068757520 PUSH1 0x44 DUP3 ADD MSTORE PUSH32 0x686F61632061646D696E206D6F692064756F632063687579656E20717579656E PUSH1 0x64 DUP3 ADD MSTORE PUSH1 0x84 ADD PUSH2 0x253 JUMP JUMPDEST PUSH1 0x1 PUSH1 0x1 PUSH1 0xA0 SHL SUB DUP6 AND PUSH2 0xC82 JUMPI PUSH1 0x40 MLOAD PUSH3 0x461BCD PUSH1 0xE5 SHL DUP2 MSTORE PUSH1 0x20 PUSH1 0x4 DUP3 ADD MSTORE PUSH1 0x30 PUSH1 0x24 DUP3 ADD MSTORE PUSH32 0x57617272616E74794D616E616765723A2064696120636869206E67756F69206E PUSH1 0x44 DUP3 ADD MSTORE PUSH16 0x68616E206B686F6E6720686F70206C65 PUSH1 0x80 SHL PUSH1 0x64 DUP3 ADD MSTORE PUSH1 0x84 ADD PUSH2 0x253 JUMP JUMPDEST PUSH1 0x2 DUP2 ADD DUP1 SLOAD PUSH1 0x1 PUSH1 0x1 PUSH1 0xA0 SHL SUB DUP8 DUP2 AND PUSH1 0x1 PUSH1 0x1 PUSH1 0xA0 SHL SUB NOT DUP4 AND DUP2 OR SWAP1 SWAP4 SSTORE PUSH1 0x40 MLOAD SWAP2 AND SWAP2 SWAP1 DUP3 SWAP1 PUSH32 0x6840904F5B31827F74E1497360DA245F56E530C8C3DE3163A2D31F11493273C6 SWAP1 PUSH2 0xCDB SWAP1 DUP13 SWAP1 DUP13 SWAP1 PUSH2 0x1559 JUMP JUMPDEST PUSH1 0x40 MLOAD DUP1 SWAP2 SUB SWAP1 LOG3 POP POP POP POP POP POP POP POP JUMP JUMPDEST PUSH1 0x60 PUSH0 DUP1 PUSH0 DUP1 DUP7 DUP7 PUSH1 0x1 PUSH0 PUSH2 0xD02 DUP5 DUP5 PUSH2 0xE56 JUMP JUMPDEST DUP2 MSTORE PUSH1 0x20 DUP2 ADD SWAP2 SWAP1 SWAP2 MSTORE PUSH1 0x40 ADD PUSH0 KECCAK256 PUSH1 0x5 ADD SLOAD PUSH1 0xFF AND PUSH2 0xD34 JUMPI PUSH1 0x40 MLOAD PUSH3 0x461BCD PUSH1 0xE5 SHL DUP2 MSTORE PUSH1 0x4 ADD PUSH2 0x253 SWAP1 PUSH2 0x122D JUMP JUMPDEST PUSH0 PUSH1 0x1 PUSH0 PUSH2 0xD42 DUP13 DUP13 PUSH2 0xE56 JUMP JUMPDEST DUP2 MSTORE PUSH1 0x20 DUP2 ADD SWAP2 SWAP1 SWAP2 MSTORE PUSH1 0x40 ADD PUSH0 KECCAK256 PUSH1 0x5 DUP2 ADD SLOAD SWAP1 SWAP2 POP PUSH2 0x100 SWAP1 DIV PUSH1 0xFF AND PUSH1 0x1 DUP2 PUSH1 0x3 DUP2 GT ISZERO PUSH2 0xD75 JUMPI PUSH2 0xD75 PUSH2 0x116F JUMP JUMPDEST EQ DUP1 ISZERO PUSH2 0xD85 JUMPI POP DUP2 PUSH1 0x4 ADD SLOAD TIMESTAMP GT JUMPDEST ISZERO PUSH2 0xD8E JUMPI POP PUSH1 0x3 JUMPDEST DUP2 PUSH1 0x1 ADD DUP3 PUSH1 0x2 ADD PUSH0 SWAP1 SLOAD SWAP1 PUSH2 0x100 EXP SWAP1 DIV PUSH1 0x1 PUSH1 0x1 PUSH1 0xA0 SHL SUB AND DUP4 PUSH1 0x3 ADD SLOAD DUP5 PUSH1 0x4 ADD SLOAD DUP5 DUP5 DUP1 SLOAD PUSH2 0xDC0 SWAP1 PUSH2 0x1285 JUMP JUMPDEST DUP1 PUSH1 0x1F ADD PUSH1 0x20 DUP1 SWAP2 DIV MUL PUSH1 0x20 ADD PUSH1 0x40 MLOAD SWAP1 DUP2 ADD PUSH1 0x40 MSTORE DUP1 SWAP3 SWAP2 SWAP1 DUP2 DUP2 MSTORE PUSH1 0x20 ADD DUP3 DUP1 SLOAD PUSH2 0xDEC SWAP1 PUSH2 0x1285 JUMP JUMPDEST DUP1 ISZERO PUSH2 0xE37 JUMPI DUP1 PUSH1 0x1F LT PUSH2 0xE0E JUMPI PUSH2 0x100 DUP1 DUP4 SLOAD DIV MUL DUP4 MSTORE SWAP2 PUSH1 0x20 ADD SWAP2 PUSH2 0xE37 JUMP JUMPDEST DUP3 ADD SWAP2 SWAP1 PUSH0 MSTORE PUSH1 0x20 PUSH0 KECCAK256 SWAP1 JUMPDEST DUP2 SLOAD DUP2 MSTORE SWAP1 PUSH1 0x1 ADD SWAP1 PUSH1 0x20 ADD DUP1 DUP4 GT PUSH2 0xE1A JUMPI DUP3 SWAP1 SUB PUSH1 0x1F AND DUP3 ADD SWAP2 JUMPDEST POP POP POP POP POP SWAP5 POP SWAP9 POP SWAP9 POP SWAP9 POP SWAP9 POP SWAP9 POP POP POP POP POP SWAP3 SWAP6 POP SWAP3 SWAP6 SWAP1 SWAP4 POP JUMP JUMPDEST PUSH0 DUP3 DUP3 PUSH1 0x40 MLOAD PUSH1 0x20 ADD PUSH2 0xE6A SWAP3 SWAP2 SWAP1 PUSH2 0x1574 JUMP JUMPDEST PUSH1 0x40 MLOAD PUSH1 0x20 DUP2 DUP4 SUB SUB DUP2 MSTORE SWAP1 PUSH1 0x40 MSTORE DUP1 MLOAD SWAP1 PUSH1 0x20 ADD KECCAK256 SWAP1 POP JUMPDEST SWAP3 SWAP2 POP POP JUMP JUMPDEST PUSH0 DUP1 DUP4 PUSH1 0x1F DUP5 ADD SLT PUSH2 0xE99 JUMPI PUSH0 DUP1 REVERT JUMPDEST POP DUP2 CALLDATALOAD PUSH8 0xFFFFFFFFFFFFFFFF DUP2 GT ISZERO PUSH2 0xEB0 JUMPI PUSH0 DUP1 REVERT JUMPDEST PUSH1 0x20 DUP4 ADD SWAP2 POP DUP4 PUSH1 0x20 DUP3 DUP6 ADD ADD GT ISZERO PUSH2 0xEC7 JUMPI PUSH0 DUP1 REVERT JUMPDEST SWAP3 POP SWAP3 SWAP1 POP JUMP JUMPDEST PUSH0 DUP1 PUSH1 0x20 DUP4 DUP6 SUB SLT ISZERO PUSH2 0xEDF JUMPI PUSH0 DUP1 REVERT JUMPDEST DUP3 CALLDATALOAD PUSH8 0xFFFFFFFFFFFFFFFF DUP2 GT ISZERO PUSH2 0xEF5 JUMPI PUSH0 DUP1 REVERT JUMPDEST PUSH2 0xF01 DUP6 DUP3 DUP7 ADD PUSH2 0xE89 JUMP JUMPDEST SWAP1 SWAP7 SWAP1 SWAP6 POP SWAP4 POP POP POP POP JUMP JUMPDEST DUP1 CALLDATALOAD PUSH1 0x1 PUSH1 0x1 PUSH1 0xA0 SHL SUB DUP2 AND DUP2 EQ PUSH2 0xF23 JUMPI PUSH0 DUP1 REVERT JUMPDEST SWAP2 SWAP1 POP JUMP JUMPDEST PUSH0 DUP1 PUSH0 PUSH1 0x40 DUP5 DUP7 SUB SLT ISZERO PUSH2 0xF3A JUMPI PUSH0 DUP1 REVERT JUMPDEST DUP4 CALLDATALOAD PUSH8 0xFFFFFFFFFFFFFFFF DUP2 GT ISZERO PUSH2 0xF50 JUMPI PUSH0 DUP1 REVERT JUMPDEST PUSH2 0xF5C DUP7 DUP3 DUP8 ADD PUSH2 0xE89 JUMP JUMPDEST SWAP1 SWAP5 POP SWAP3 POP PUSH2 0xF6F SWAP1 POP PUSH1 0x20 DUP6 ADD PUSH2 0xF0D JUMP JUMPDEST SWAP1 POP SWAP3 POP SWAP3 POP SWAP3 JUMP JUMPDEST PUSH0 PUSH1 0x20 DUP3 DUP5 SUB SLT ISZERO PUSH2 0xF88 JUMPI PUSH0 DUP1 REVERT JUMPDEST POP CALLDATALOAD SWAP2 SWAP1 POP JUMP JUMPDEST PUSH0 DUP2 MLOAD DUP1 DUP5 MSTORE PUSH0 JUMPDEST DUP2 DUP2 LT ISZERO PUSH2 0xFB3 JUMPI PUSH1 0x20 DUP2 DUP6 ADD DUP2 ADD MLOAD DUP7 DUP4 ADD DUP3 ADD MSTORE ADD PUSH2 0xF97 JUMP JUMPDEST POP PUSH0 PUSH1 0x20 DUP3 DUP7 ADD ADD MSTORE PUSH1 0x20 PUSH1 0x1F NOT PUSH1 0x1F DUP4 ADD AND DUP6 ADD ADD SWAP2 POP POP SWAP3 SWAP2 POP POP JUMP JUMPDEST PUSH1 0x20 DUP2 MSTORE PUSH0 PUSH2 0x34D PUSH1 0x20 DUP4 ADD DUP5 PUSH2 0xF8F JUMP JUMPDEST PUSH0 PUSH1 0x20 DUP3 DUP5 SUB SLT ISZERO PUSH2 0xFF4 JUMPI PUSH0 DUP1 REVERT JUMPDEST PUSH2 0x34D DUP3 PUSH2 0xF0D JUMP JUMPDEST PUSH0 DUP1 PUSH0 DUP1 PUSH0 DUP1 PUSH1 0x80 DUP8 DUP10 SUB SLT ISZERO PUSH2 0x1012 JUMPI PUSH0 DUP1 REVERT JUMPDEST DUP7 CALLDATALOAD PUSH8 0xFFFFFFFFFFFFFFFF DUP1 DUP3 GT ISZERO PUSH2 0x1029 JUMPI PUSH0 DUP1 REVERT JUMPDEST PUSH2 0x1035 DUP11 DUP4 DUP12 ADD PUSH2 0xE89 JUMP JUMPDEST SWAP1 SWAP9 POP SWAP7 POP PUSH1 0x20 DUP10 ADD CALLDATALOAD SWAP2 POP DUP1 DUP3 GT ISZERO PUSH2 0x104D JUMPI PUSH0 DUP1 REVERT JUMPDEST POP PUSH2 0x105A DUP10 DUP3 DUP11 ADD PUSH2 0xE89 JUMP JUMPDEST SWAP1 SWAP6 POP SWAP4 POP PUSH2 0x106D SWAP1 POP PUSH1 0x40 DUP9 ADD PUSH2 0xF0D JUMP JUMPDEST SWAP2 POP PUSH1 0x60 DUP8 ADD CALLDATALOAD SWAP1 POP SWAP3 SWAP6 POP SWAP3 SWAP6 POP SWAP3 SWAP6 JUMP JUMPDEST PUSH0 DUP1 PUSH0 DUP1 PUSH1 0x40 DUP6 DUP8 SUB SLT ISZERO PUSH2 0x1093 JUMPI PUSH0 DUP1 REVERT JUMPDEST DUP5 CALLDATALOAD PUSH8 0xFFFFFFFFFFFFFFFF DUP1 DUP3 GT ISZERO PUSH2 0x10AA JUMPI PUSH0 DUP1 REVERT JUMPDEST PUSH2 0x10B6 DUP9 DUP4 DUP10 ADD PUSH2 0xE89 JUMP JUMPDEST SWAP1 SWAP7 POP SWAP5 POP PUSH1 0x20 DUP8 ADD CALLDATALOAD SWAP2 POP DUP1 DUP3 GT ISZERO PUSH2 0x10CE JUMPI PUSH0 DUP1 REVERT JUMPDEST POP PUSH2 0x10DB DUP8 DUP3 DUP9 ADD PUSH2 0xE89 JUMP JUMPDEST SWAP6 SWAP9 SWAP5 SWAP8 POP SWAP6 POP POP POP POP JUMP JUMPDEST PUSH0 PUSH1 0x20 DUP1 DUP4 ADD DUP2 DUP5 MSTORE DUP1 DUP6 MLOAD DUP1 DUP4 MSTORE PUSH1 0x40 SWAP3 POP DUP3 DUP7 ADD SWAP2 POP DUP3 DUP2 PUSH1 0x5 SHL DUP8 ADD ADD DUP5 DUP9 ADD PUSH0 JUMPDEST DUP4 DUP2 LT ISZERO PUSH2 0x1161 JUMPI PUSH1 0x3F NOT DUP10 DUP5 SUB ADD DUP6 MSTORE DUP2 MLOAD PUSH1 0x60 DUP2 MLOAD DUP6 MSTORE DUP9 DUP3 ADD MLOAD DUP2 DUP11 DUP8 ADD MSTORE PUSH2 0x113A DUP3 DUP8 ADD DUP3 PUSH2 0xF8F JUMP JUMPDEST SWAP3 DUP10 ADD MLOAD PUSH1 0x1 PUSH1 0x1 PUSH1 0xA0 SHL SUB AND SWAP6 DUP10 ADD SWAP6 SWAP1 SWAP6 MSTORE POP SWAP5 DUP8 ADD SWAP5 SWAP3 POP SWAP1 DUP7 ADD SWAP1 PUSH1 0x1 ADD PUSH2 0x110C JUMP JUMPDEST POP SWAP1 SWAP9 SWAP8 POP POP POP POP POP POP POP POP JUMP JUMPDEST PUSH4 0x4E487B71 PUSH1 0xE0 SHL PUSH0 MSTORE PUSH1 0x21 PUSH1 0x4 MSTORE PUSH1 0x24 PUSH0 REVERT JUMPDEST PUSH1 0xA0 DUP2 MSTORE PUSH0 PUSH2 0x1195 PUSH1 0xA0 DUP4 ADD DUP9 PUSH2 0xF8F JUMP JUMPDEST PUSH1 0x1 PUSH1 0x1 PUSH1 0xA0 SHL SUB DUP8 AND PUSH1 0x20 DUP5 ADD MSTORE PUSH1 0x40 DUP4 ADD DUP7 SWAP1 MSTORE PUSH1 0x60 DUP4 ADD DUP6 SWAP1 MSTORE SWAP1 POP PUSH1 0x4 DUP4 LT PUSH2 0x11D0 JUMPI PUSH4 0x4E487B71 PUSH1 0xE0 SHL PUSH0 MSTORE PUSH1 0x21 PUSH1 0x4 MSTORE PUSH1 0x24 PUSH0 REVERT JUMPDEST DUP3 PUSH1 0x80 DUP4 ADD MSTORE SWAP7 SWAP6 POP POP POP POP POP POP JUMP JUMPDEST PUSH1 0x20 DUP1 DUP3 MSTORE PUSH1 0x2D SWAP1 DUP3 ADD MSTORE PUSH32 0x57617272616E74794D616E616765723A206368692061646D696E2F68616E6720 PUSH1 0x40 DUP3 ADD MSTORE PUSH13 0x6D6F692064756F63207068657 PUSH1 0x9C SHL PUSH1 0x60 DUP3 ADD MSTORE PUSH1 0x80 ADD SWAP1 JUMP JUMPDEST PUSH1 0x20 DUP1 DUP3 MSTORE PUSH1 0x24 SWAP1 DUP3 ADD MSTORE PUSH32 0x57617272616E74794D616E616765723A206B686F6E672074696D207468617920 PUSH1 0x40 DUP3 ADD MSTORE PUSH4 0x494D4549 PUSH1 0xE0 SHL PUSH1 0x60 DUP3 ADD MSTORE PUSH1 0x80 ADD SWAP1 JUMP JUMPDEST PUSH4 0x4E487B71 PUSH1 0xE0 SHL PUSH0 MSTORE PUSH1 0x32 PUSH1 0x4 MSTORE PUSH1 0x24 PUSH0 REVERT JUMPDEST PUSH1 0x1 DUP2 DUP2 SHR SWAP1 DUP3 AND DUP1 PUSH2 0x1299 JUMPI PUSH1 0x7F DUP3 AND SWAP2 POP JUMPDEST PUSH1 0x20 DUP3 LT DUP2 SUB PUSH2 0x12B7 JUMPI PUSH4 0x4E487B71 PUSH1 0xE0 SHL PUSH0 MSTORE PUSH1 0x22 PUSH1 0x4 MSTORE PUSH1 0x24 PUSH0 REVERT JUMPDEST POP SWAP2 SWAP1 POP JUMP JUMPDEST PUSH4 0x4E487B71 PUSH1 0xE0 SHL PUSH0 MSTORE PUSH1 0x11 PUSH1 0x4 MSTORE PUSH1 0x24 PUSH0 REVERT JUMPDEST DUP1 DUP3 MUL DUP2 ISZERO DUP3 DUP3 DIV DUP5 EQ OR PUSH2 0xE83 JUMPI PUSH2 0xE83 PUSH2 0x12BD JUMP JUMPDEST DUP1 DUP3 ADD DUP1 DUP3 GT ISZERO PUSH2 0xE83 JUMPI PUSH2 0xE83 PUSH2 0x12BD JUMP JUMPDEST PUSH4 0x4E487B71 PUSH1 0xE0 SHL PUSH0 MSTORE PUSH1 0x41 PUSH1 0x4 MSTORE PUSH1 0x24 PUSH0 REVERT JUMPDEST PUSH1 0x1F DUP3 GT ISZERO PUSH2 0x1358 JUMPI PUSH0 DUP2 DUP2 MSTORE PUSH1 0x20 DUP2 KECCAK256 PUSH1 0x1F DUP6 ADD PUSH1 0x5 SHR DUP2 ADD PUSH1 0x20 DUP7 LT ISZERO PUSH2 0x1335 JUMPI POP DUP1 JUMPDEST PUSH1 0x1F DUP6 ADD PUSH1 0x5 SHR DUP3 ADD SWAP2 POP JUMPDEST DUP2 DUP2 LT ISZERO PUSH2 0x1354 JUMPI DUP3 DUP2 SSTORE PUSH1 0x1 ADD PUSH2 0x1341 JUMP JUMPDEST POP POP POP JUMPDEST POP POP POP JUMP JUMPDEST PUSH8 0xFFFFFFFFFFFFFFFF DUP4 GT ISZERO PUSH2 0x1375 JUMPI PUSH2 0x1375 PUSH2 0x12FB JUMP JUMPDEST PUSH2 0x1389 DUP4 PUSH2 0x1383 DUP4 SLOAD PUSH2 0x1285 JUMP JUMPDEST DUP4 PUSH2 0x130F JUMP JUMPDEST PUSH0 PUSH1 0x1F DUP5 GT PUSH1 0x1 DUP2 EQ PUSH2 0x13BA JUMPI PUSH0 DUP6 ISZERO PUSH2 0x13A3 JUMPI POP DUP4 DUP3 ADD CALLDATALOAD JUMPDEST PUSH0 NOT PUSH1 0x3 DUP8 SWAP1 SHL SHR NOT AND PUSH1 0x1 DUP7 SWAP1 SHL OR DUP4 SSTORE PUSH2 0x1412 JUMP JUMPDEST PUSH0 DUP4 DUP2 MSTORE PUSH1 0x20 SWAP1 KECCAK256 PUSH1 0x1F NOT DUP7 AND SWAP1 DUP4 JUMPDEST DUP3 DUP2 LT ISZERO PUSH2 0x13EA JUMPI DUP7 DUP6 ADD CALLDATALOAD DUP3 SSTORE PUSH1 0x20 SWAP5 DUP6 ADD SWAP5 PUSH1 0x1 SWAP1 SWAP3 ADD SWAP2 ADD PUSH2 0x13CA JUMP JUMPDEST POP DUP7 DUP3 LT ISZERO PUSH2 0x1406 JUMPI PUSH0 NOT PUSH1 0xF8 DUP9 PUSH1 0x3 SHL AND SHR NOT DUP5 DUP8 ADD CALLDATALOAD AND DUP2 SSTORE JUMPDEST POP POP PUSH1 0x1 DUP6 PUSH1 0x1 SHL ADD DUP4 SSTORE JUMPDEST POP POP POP POP POP JUMP JUMPDEST DUP2 DUP4 MSTORE DUP2 DUP2 PUSH1 0x20 DUP6 ADD CALLDATACOPY POP PUSH0 DUP3 DUP3 ADD PUSH1 0x20 SWAP1 DUP2 ADD SWAP2 SWAP1 SWAP2 MSTORE PUSH1 0x1F SWAP1 SWAP2 ADD PUSH1 0x1F NOT AND SWAP1 SWAP2 ADD ADD SWAP1 JUMP JUMPDEST PUSH1 0x40 DUP2 MSTORE PUSH0 PUSH2 0x1454 PUSH1 0x40 DUP4 ADD DUP6 DUP8 PUSH2 0x1419 JUMP JUMPDEST SWAP1 POP DUP3 PUSH1 0x20 DUP4 ADD MSTORE SWAP5 SWAP4 POP POP POP POP JUMP JUMPDEST DUP2 MLOAD PUSH8 0xFFFFFFFFFFFFFFFF DUP2 GT ISZERO PUSH2 0x147E JUMPI PUSH2 0x147E PUSH2 0x12FB JUMP JUMPDEST PUSH2 0x1492 DUP2 PUSH2 0x148C DUP5 SLOAD PUSH2 0x1285 JUMP JUMPDEST DUP5 PUSH2 0x130F JUMP JUMPDEST PUSH1 0x20 DUP1 PUSH1 0x1F DUP4 GT PUSH1 0x1 DUP2 EQ PUSH2 0x14C5 JUMPI PUSH0 DUP5 ISZERO PUSH2 0x14AE JUMPI POP DUP6 DUP4 ADD MLOAD JUMPDEST PUSH0 NOT PUSH1 0x3 DUP7 SWAP1 SHL SHR NOT AND PUSH1 0x1 DUP6 SWAP1 SHL OR DUP6 SSTORE PUSH2 0x1354 JUMP JUMPDEST PUSH0 DUP6 DUP2 MSTORE PUSH1 0x20 DUP2 KECCAK256 PUSH1 0x1F NOT DUP7 AND SWAP2 JUMPDEST DUP3 DUP2 LT ISZERO PUSH2 0x14F3 JUMPI DUP9 DUP7 ADD MLOAD DUP3 SSTORE SWAP5 DUP5 ADD SWAP5 PUSH1 0x1 SWAP1 SWAP2 ADD SWAP1 DUP5 ADD PUSH2 0x14D4 JUMP JUMPDEST POP DUP6 DUP3 LT ISZERO PUSH2 0x1510 JUMPI DUP8 DUP6 ADD MLOAD PUSH0 NOT PUSH1 0x3 DUP9 SWAP1 SHL PUSH1 0xF8 AND SHR NOT AND DUP2 SSTORE JUMPDEST POP POP POP POP POP PUSH1 0x1 SWAP1 DUP2 SHL ADD SWAP1 SSTORE POP JUMP JUMPDEST PUSH1 0x60 DUP2 MSTORE PUSH0 PUSH2 0x1533 PUSH1 0x60 DUP4 ADD DUP8 DUP10 PUSH2 0x1419 JUMP JUMPDEST DUP3 DUP2 SUB PUSH1 0x20 DUP5 ADD MSTORE PUSH2 0x1546 DUP2 DUP7 DUP9 PUSH2 0x1419 JUMP JUMPDEST SWAP2 POP POP DUP3 PUSH1 0x40 DUP4 ADD MSTORE SWAP7 SWAP6 POP POP POP POP POP POP JUMP JUMPDEST PUSH1 0x20 DUP2 MSTORE PUSH0 PUSH2 0x156C PUSH1 0x20 DUP4 ADD DUP5 DUP7 PUSH2 0x1419 JUMP JUMPDEST SWAP5 SWAP4 POP POP POP POP JUMP JUMPDEST DUP2 DUP4 DUP3 CALLDATACOPY PUSH0 SWAP2 ADD SWAP1 DUP2 MSTORE SWAP2 SWAP1 POP JUMP INVALID LOG2 PUSH5 0x6970667358 0x22 SLT KECCAK256 SWAP11 0x26 0xEB 0xD8 0xF8 0x4C CALL DUP8 SWAP6 DUP7 SHR 0xE6 0xF8 CODESIZE 0xD9 0xCA 0x29 0xB1 AND 0xBF MSIZE SGT 0xAC 0xC4 0xB3 0xE5 0xD2 EXP OR 0xE0 DELEGATECALL 0xAD PUSH5 0x736F6C6343 STOP ADDMOD EQ STOP CALLER "},"methodIdentifiers":{"activateWarranty(string,string,address,uint256)":"99c3fe70","addRepairRecord(string,string)":"b07cff5a","admin()":"f851a440","canTransferOwnership(string,address)":"3a6ece56","changeAdmin(address)":"8f283970","checkWarranty(string)":"e9fb2db1","getImeiByIndex(uint256)":"07bb5a3d","getRepairHistory(string)":"bd6c1c85","getTotalWarranties()":"d540064d","isAdminAccount(address)":"329e0587","isWarrantyOwner(string,address)":"07bb03eb","markRepairComplete(string)":"00c19e80","transferOwnership(string,address)":"c0e793c2"}}}}}