{
  "_format": "hh3-artifact-1",
  "contractName": "WarrantyManager",
  "sourceName": "src/contracts/WarrantyManager.sol",
  "abi": [
    {
      "inputs": [],
      "stateMutability": "nonpayable",
      "type": "constructor"
    },
    {
      "anonymous": false,
      "inputs": [
        {
          "indexed": true,
          "internalType": "address",
          "name": "oldAdmin",
          "type": "address"
        },
        {
          "indexed": true,
          "internalType": "address",
          "name": "newAdmin",
          "type": "address"
        }
      ],
      "name": "AdminChanged",
      "type": "event"
    },
    {
      "anonymous": false,
      "inputs": [
        {
          "indexed": false,
          "internalType": "string",
          "name": "imei",
          "type": "string"
        },
        {
          "indexed": true,
          "internalType": "address",
          "name": "from",
          "type": "address"
        },
        {
          "indexed": true,
          "internalType": "address",
          "name": "to",
          "type": "address"
        }
      ],
      "name": "OwnershipTransferred",
      "type": "event"
    },
    {
      "anonymous": false,
      "inputs": [
        {
          "indexed": false,
          "internalType": "string",
          "name": "imei",
          "type": "string"
        },
        {
          "indexed": false,
          "internalType": "string",
          "name": "description",
          "type": "string"
        },
        {
          "indexed": false,
          "internalType": "uint256",
          "name": "timestamp",
          "type": "uint256"
        }
      ],
      "name": "RepairAdded",
      "type": "event"
    },
    {
      "anonymous": false,
      "inputs": [
        {
          "indexed": false,
          "internalType": "string",
          "name": "imei",
          "type": "string"
        },
        {
          "indexed": true,
          "internalType": "address",
          "name": "owner",
          "type": "address"
        },
        {
          "indexed": false,
          "internalType": "uint256",
          "name": "expiresAt",
          "type": "uint256"
        }
      ],
      "name": "WarrantyActivated",
      "type": "event"
    },
    {
      "anonymous": false,
      "inputs": [
        {
          "indexed": false,
          "internalType": "string",
          "name": "imei",
          "type": "string"
        },
        {
          "indexed": false,
          "internalType": "uint256",
          "name": "newExpiresAt",
          "type": "uint256"
        }
      ],
      "name": "WarrantyRenewed",
      "type": "event"
    },
    {
      "inputs": [
        {
          "internalType": "string",
          "name": "imei",
          "type": "string"
        },
        {
          "internalType": "string",
          "name": "model",
          "type": "string"
        },
        {
          "internalType": "address",
          "name": "owner_",
          "type": "address"
        },
        {
          "internalType": "uint256",
          "name": "durationInDays",
          "type": "uint256"
        }
      ],
      "name": "activateWarranty",
      "outputs": [],
      "stateMutability": "nonpayable",
      "type": "function"
    },
    {
      "inputs": [
        {
          "internalType": "string",
          "name": "imei",
          "type": "string"
        },
        {
          "internalType": "string",
          "name": "description",
          "type": "string"
        }
      ],
      "name": "addRepairRecord",
      "outputs": [],
      "stateMutability": "nonpayable",
      "type": "function"
    },
    {
      "inputs": [],
      "name": "admin",
      "outputs": [
        {
          "internalType": "address",
          "name": "",
          "type": "address"
        }
      ],
      "stateMutability": "view",
      "type": "function"
    },
    {
      "inputs": [
        {
          "internalType": "string",
          "name": "imei",
          "type": "string"
        },
        {
          "internalType": "address",
          "name": "account",
          "type": "address"
        }
      ],
      "name": "canTransferOwnership",
      "outputs": [
        {
          "internalType": "bool",
          "name": "",
          "type": "bool"
        }
      ],
      "stateMutability": "view",
      "type": "function"
    },
    {
      "inputs": [
        {
          "internalType": "address",
          "name": "newAdmin",
          "type": "address"
        }
      ],
      "name": "changeAdmin",
      "outputs": [],
      "stateMutability": "nonpayable",
      "type": "function"
    },
    {
      "inputs": [
        {
          "internalType": "string",
          "name": "imei",
          "type": "string"
        }
      ],
      "name": "checkWarranty",
      "outputs": [
        {
          "internalType": "string",
          "name": "model",
          "type": "string"
        },
        {
          "internalType": "address",
          "name": "owner_",
          "type": "address"
        },
        {
          "internalType": "uint256",
          "name": "activatedAt",
          "type": "uint256"
        },
        {
          "internalType": "uint256",
          "name": "expiresAt",
          "type": "uint256"
        },
        {
          "internalType": "enum WarrantyManager.WarrantyStatus",
          "name": "status",
          "type": "uint8"
        }
      ],
      "stateMutability": "view",
      "type": "function"
    },
    {
      "inputs": [
        {
          "internalType": "uint256",
          "name": "index",
          "type": "uint256"
        }
      ],
      "name": "getImeiByIndex",
      "outputs": [
        {
          "internalType": "string",
          "name": "",
          "type": "string"
        }
      ],
      "stateMutability": "view",
      "type": "function"
    },
    {
      "inputs": [
        {
          "internalType": "string",
          "name": "imei",
          "type": "string"
        }
      ],
      "name": "getRepairHistory",
      "outputs": [
        {
          "components": [
            {
              "internalType": "uint256",
              "name": "timestamp",
              "type": "uint256"
            },
            {
              "internalType": "string",
              "name": "description",
              "type": "string"
            },
            {
              "internalType": "address",
              "name": "recordedBy",
              "type": "address"
            }
          ],
          "internalType": "struct WarrantyManager.RepairRecord[]",
          "name": "",
          "type": "tuple[]"
        }
      ],
      "stateMutability": "view",
      "type": "function"
    },
    {
      "inputs": [],
      "name": "getTotalWarranties",
      "outputs": [
        {
          "internalType": "uint256",
          "name": "",
          "type": "uint256"
        }
      ],
      "stateMutability": "view",
      "type": "function"
    },
    {
      "inputs": [
        {
          "internalType": "address",
          "name": "account",
          "type": "address"
        }
      ],
      "name": "isAdminAccount",
      "outputs": [
        {
          "internalType": "bool",
          "name": "",
          "type": "bool"
        }
      ],
      "stateMutability": "view",
      "type": "function"
    },
    {
      "inputs": [
        {
          "internalType": "string",
          "name": "imei",
          "type": "string"
        },
        {
          "internalType": "address",
          "name": "account",
          "type": "address"
        }
      ],
      "name": "isWarrantyOwner",
      "outputs": [
        {
          "internalType": "bool",
          "name": "",
          "type": "bool"
        }
      ],
      "stateMutability": "view",
      "type": "function"
    },
    {
      "inputs": [
        {
          "internalType": "string",
          "name": "imei",
          "type": "string"
        }
      ],
      "name": "markRepairComplete",
      "outputs": [],
      "stateMutability": "nonpayable",
      "type": "function"
    },
    {
      "inputs": [
        {
          "internalType": "string",
          "name": "imei",
          "type": "string"
        },
        {
          "internalType": "address",
          "name": "newOwner",
          "type": "address"
        }
      ],
      "name": "transferOwnership",
      "outputs": [],
      "stateMutability": "nonpayable",
      "type": "function"
    }
  ],
  "bytecode": "0x608060405234801561000f575f80fd5b505f80546001600160a01b031916331790556115b98061002e5f395ff3fe608060405234801561000f575f80fd5b50600436106100ca575f3560e01c806399c3fe7011610088578063c0e793c211610063578063c0e793c2146101b8578063d540064d146101cb578063e9fb2db1146101dc578063f851a44014610200575f80fd5b806399c3fe7014610172578063b07cff5a14610185578063bd6c1c8514610198575f80fd5b8062c19e80146100ce57806307bb03eb146100e357806307bb5a3d1461010b578063329e05871461012b5780633a6ece561461014c5780638f2839701461015f575b5f80fd5b6100e16100dc366004610ece565b61022a565b005b6100f66100f1366004610f28565b6102fb565b60405190151581526020015b60405180910390f35b61011e610119366004610f78565b610354565b6040516101029190610fd2565b6100f6610139366004610fe4565b5f546001600160a01b0391821691161490565b6100f661015a366004610f28565b610470565b6100e161016d366004610fe4565b610499565b6100e1610180366004610ffd565b610589565b6100e1610193366004611080565b61081c565b6101ab6101a6366004610ece565b6109b5565b60405161010291906110e7565b6100e16101c6366004610f28565b610b1e565b600354604051908152602001610102565b6101ef6101ea366004610ece565b610ced565b604051610102959493929190611183565b5f54610212906001600160a01b031681565b6040516001600160a01b039091168152602001610102565b5f546001600160a01b0316331461025c5760405162461bcd60e51b8152600401610253906111e0565b60405180910390fd5b818160015f61026b8484610e56565b815260208101919091526040015f206005015460ff1661029d5760405162461bcd60e51b81526004016102539061122d565b5f60015f6102ab8787610e56565b81526020019081526020015f209050806004015442116102cc5760016102cf565b60035b60058201805461ff0019166101008360038111156102ef576102ef61116f565b02179055505050505050565b5f806103078585610e56565b5f8181526001602052604090206005015490915060ff1661032b575f91505061034d565b5f908152600160205260409020600201546001600160a01b0383811691161490505b9392505050565b60035460609082106103b45760405162461bcd60e51b8152602060048201526024808201527f57617272616e74794d616e616765723a20696e6465782076756f742067696f69604482015263103430b760e11b6064820152608401610253565b60015f600384815481106103ca576103ca611271565b905f5260205f20015481526020019081526020015f205f0180546103ed90611285565b80601f016020809104026020016040519081016040528092919081815260200182805461041990611285565b80156104645780601f1061043b57610100808354040283529160200191610464565b820191905f5260205f20905b81548152906001019060200180831161044757829003601f168201915b50505050509050919050565b5f80546001600160a01b039081169083160361048e5750600161034d565b5f6103078585610e56565b5f546001600160a01b031633146104c25760405162461bcd60e51b8152600401610253906111e0565b6001600160a01b0381166105305760405162461bcd60e51b815260206004820152602f60248201527f57617272616e74794d616e616765723a20646961206368692061646d696e206d60448201526e6f69206b686f6e6720686f70206c6560881b6064820152608401610253565b5f80546040516001600160a01b03808516939216917f7e644d79422f17c01e4894b5f4f588d331ebfa28653d42ae832dc59e38c9798f91a35f80546001600160a01b0319166001600160a01b0392909216919091179055565b5f546001600160a01b031633146105b25760405162461bcd60e51b8152600401610253906111e0565b6001600160a01b03821661061c5760405162461bcd60e51b815260206004820152602b60248201527f57617272616e74794d616e616765723a2064696120636869206f776e6572206b60448201526a686f6e6720686f70206c6560a81b6064820152608401610253565b5f81116106765760405162461bcd60e51b815260206004820152602260248201527f57617272616e74794d616e616765723a2074686f692068616e2070686169203e604482015261020360f41b6064820152608401610253565b5f6106818787610e56565b5f81815260016020526040812091925061069e84620151806112d1565b6106a890426112e8565b600583015490915060ff1661078957816106c3898b8361135d565b50600182016106d387898361135d565b506002820180546001600160a01b0319166001600160a01b038716908117909155426003808501919091556004840183905560058401805461ffff191661010117905580546001810182555f919091527fc2575a0e9e593c00f959f8c92f12db2869c3395a3b0502d05e2516446f71f85b018490556040517fe68347a47d8eaa1f7358f638fe4e90cfa3efc252ff98eb5f175196b53cd460909061077c908c908c908690611441565b60405180910390a2610811565b6001820161079887898361135d565b506002820180546001600160a01b0319166001600160a01b0387161790554260038301556004820181905560058201805461ff0019166101001790556040517f39344c5d2644793c2e36a32a36dcfffa239f0e6f7921ed4ddb7216b38d7b5e9490610808908b908b908590611441565b60405180910390a15b505050505050505050565b5f546001600160a01b031633146108455760405162461bcd60e51b8152600401610253906111e0565b838360015f6108548484610e56565b815260208101919091526040015f206005015460ff166108865760405162461bcd60e51b81526004016102539061122d565b5f6108918787610e56565b905060025f8281526020019081526020015f20604051806060016040528042815260200187878080601f0160208091040260200160405190810160405280939291908181526020018383808284375f920182905250938552505033602093840152508354600181810186559482529082902083516003909202019081559082015191929091908201906109249082611464565b50604091820151600291820180546001600160a01b0319166001600160a01b039092169190911790555f838152600160205291909120600501805461ff0019166101008302179055507f7aca620370dc57078ecfe486cdb8ae6642f367f6b0efb1266ac1ada72872708787878787426040516109a4959493929190611520565b60405180910390a150505050505050565b6060828260015f6109c68484610e56565b815260208101919091526040015f206005015460ff166109f85760405162461bcd60e51b81526004016102539061122d565b60025f610a058787610e56565b81526020019081526020015f20805480602002602001604051908101604052809291908181526020015f905b82821015610b10578382905f5260205f2090600302016040518060600160405290815f8201548152602001600182018054610a6b90611285565b80601f0160208091040260200160405190810160405280929190818152602001828054610a9790611285565b8015610ae25780601f10610ab957610100808354040283529160200191610ae2565b820191905f5260205f20905b815481529060010190602001808311610ac557829003601f168201915b5050509183525050600291909101546001600160a01b03166020918201529082526001929092019101610a31565b505050509250505092915050565b828260015f610b2d8484610e56565b815260208101919091526040015f206005015460ff16610b5f5760405162461bcd60e51b81526004016102539061122d565b5f610b6a8686610e56565b5f8181526001602052604090206002810154919250906001600160a01b0316331480610b9f57505f546001600160a01b031633145b610c13576040805162461bcd60e51b81526020600482015260248101919091527f57617272616e74794d616e616765723a206368692063687520736f206875752060448201527f686f61632061646d696e206d6f692064756f632063687579656e20717579656e6064820152608401610253565b6001600160a01b038516610c825760405162461bcd60e51b815260206004820152603060248201527f57617272616e74794d616e616765723a2064696120636869206e67756f69206e60448201526f68616e206b686f6e6720686f70206c6560801b6064820152608401610253565b6002810180546001600160a01b038781166001600160a01b0319831681179093556040519116919082907f6840904f5b31827f74e1497360da245f56e530c8c3de3163a2d31f11493273c690610cdb908c908c90611559565b60405180910390a35050505050505050565b60605f805f80868660015f610d028484610e56565b815260208101919091526040015f206005015460ff16610d345760405162461bcd60e51b81526004016102539061122d565b5f60015f610d428c8c610e56565b815260208101919091526040015f206005810154909150610100900460ff166001816003811115610d7557610d7561116f565b148015610d855750816004015442115b15610d8e575060035b81600101826002015f9054906101000a90046001600160a01b03168360030154846004015484848054610dc090611285565b80601f0160208091040260200160405190810160405280929190818152602001828054610dec90611285565b8015610e375780601f10610e0e57610100808354040283529160200191610e37565b820191905f5260205f20905b815481529060010190602001808311610e1a57829003601f168201915b5050505050945098509850985098509850505050509295509295909350565b5f8282604051602001610e6a929190611574565b6040516020818303038152906040528051906020012090505b92915050565b5f8083601f840112610e99575f80fd5b50813567ffffffffffffffff811115610eb0575f80fd5b602083019150836020828501011115610ec7575f80fd5b9250929050565b5f8060208385031215610edf575f80fd5b823567ffffffffffffffff811115610ef5575f80fd5b610f0185828601610e89565b90969095509350505050565b80356001600160a01b0381168114610f23575f80fd5b919050565b5f805f60408486031215610f3a575f80fd5b833567ffffffffffffffff811115610f50575f80fd5b610f5c86828701610e89565b9094509250610f6f905060208501610f0d565b90509250925092565b5f60208284031215610f88575f80fd5b5035919050565b5f81518084525f5b81811015610fb357602081850181015186830182015201610f97565b505f602082860101526020601f19601f83011685010191505092915050565b602081525f61034d6020830184610f8f565b5f60208284031215610ff4575f80fd5b61034d82610f0d565b5f805f805f8060808789031215611012575f80fd5b863567ffffffffffffffff80821115611029575f80fd5b6110358a838b01610e89565b9098509650602089013591508082111561104d575f80fd5b5061105a89828a01610e89565b909550935061106d905060408801610f0d565b9150606087013590509295509295509295565b5f805f8060408587031215611093575f80fd5b843567ffffffffffffffff808211156110aa575f80fd5b6110b688838901610e89565b909650945060208701359150808211156110ce575f80fd5b506110db87828801610e89565b95989497509550505050565b5f6020808301818452808551808352604092508286019150828160051b8701018488015f5b8381101561116157603f19898403018552815160608151855288820151818a87015261113a82870182610f8f565b928901516001600160a01b031695890195909552509487019492509086019060010161110c565b509098975050505050505050565b634e487b7160e01b5f52602160045260245ffd5b60a081525f61119560a0830188610f8f565b6001600160a01b038716602084015260408301869052606083018590529050600483106111d057634e487b7160e01b5f52602160045260245ffd5b8260808301529695505050505050565b6020808252602d908201527f57617272616e74794d616e616765723a206368692061646d696e2f68616e672060408201526c06d6f692064756f63207068657609c1b606082015260800190565b60208082526024908201527f57617272616e74794d616e616765723a206b686f6e672074696d207468617920604082015263494d454960e01b606082015260800190565b634e487b7160e01b5f52603260045260245ffd5b600181811c9082168061129957607f821691505b6020821081036112b757634e487b7160e01b5f52602260045260245ffd5b50919050565b634e487b7160e01b5f52601160045260245ffd5b8082028115828204841417610e8357610e836112bd565b80820180821115610e8357610e836112bd565b634e487b7160e01b5f52604160045260245ffd5b601f821115611358575f81815260208120601f850160051c810160208610156113355750805b601f850160051c820191505b8181101561135457828155600101611341565b5050505b505050565b67ffffffffffffffff831115611375576113756112fb565b611389836113838354611285565b8361130f565b5f601f8411600181146113ba575f85156113a35750838201355b5f19600387901b1c1916600186901b178355611412565b5f83815260209020601f19861690835b828110156113ea57868501358255602094850194600190920191016113ca565b5086821015611406575f1960f88860031b161c19848701351681555b505060018560011b0183555b5050505050565b81835281816020850137505f828201602090810191909152601f909101601f19169091010190565b604081525f611454604083018587611419565b9050826020830152949350505050565b815167ffffffffffffffff81111561147e5761147e6112fb565b6114928161148c8454611285565b8461130f565b602080601f8311600181146114c5575f84156114ae5750858301515b5f19600386901b1c1916600185901b178555611354565b5f85815260208120601f198616915b828110156114f3578886015182559484019460019091019084016114d4565b508582101561151057878501515f19600388901b60f8161c191681555b5050505050600190811b01905550565b606081525f611533606083018789611419565b8281036020840152611546818688611419565b9150508260408301529695505050505050565b602081525f61156c602083018486611419565b949350505050565b818382375f910190815291905056fea26469706673582212209a26ebd8f84cf18795861ce6f838d9ca29b116bf5913acc4b3e5d20a17e0f4ad64736f6c63430008140033",
  "linkReferences": {},
  "deployedLinkReferences": {},
  "immutableReferences": {},
  "inputSourceName": "project/src/contracts/WarrantyManager.sol",
  "buildInfoId": "solc-0_8_20-dfb9b78a6c0233d9508c913cf3397c74d3d8063b"
}